{"abi":[{"type":"function","name":"triggerResponse","inputs":[],"outputs":[],"stateMutability":"nonpayable"},{"type":"event","name":"BufferAlertTriggered","inputs":[{"name":"message","type":"string","indexed":false,"internalType":"string"},{"name":"balance","type":"uint256","indexed":false,"internalType":"uint256"},{"name":"threshold","type":"uint256","indexed":false,"internalType":"uint256"}],"anonymous":false}],"bytecode":{"object":"0x6080604052348015600e575f5ffd5b506101008061001c5f395ff3fe6080604052348015600e575f5ffd5b50600436106026575f3560e01c806337d027b814602a575b5f5ffd5b60306032565b005b604080516060808252603c908201527f456d657267656e63793a2042756666657220636f6e74726163742062616c616e60808201527f63652062656c6f7720637269746963616c207468726573686f6c64210000000060a082015261138860208201526127108183015290517fb54ce422e37cfcac344c824f78165efdf286e77e4a2d31b57a163eb52b1559439181900360c00190a156fea26469706673582212207377df02b4ffe4038543a5c65a95de0d14830d18787ccac256979b8f05ce509c64736f6c634300081e0033","linkReferences":{}},"methodIdentifiers":{"triggerResponse()":"37d027b8"},"id":29}