{"abi":[{"type":"function","name":"BUFFER_ADDRESS","inputs":[],"outputs":[{"name":"","type":"address","internalType":"address"}],"stateMutability":"view"},{"type":"function","name":"THRESHOLD","inputs":[],"outputs":[{"name":"","type":"uint256","internalType":"uint256"}],"stateMutability":"view"},{"type":"function","name":"collect","inputs":[],"outputs":[{"name":"","type":"bytes","internalType":"bytes"}],"stateMutability":"pure"},{"type":"function","name":"shouldRespond","inputs":[{"name":"data","type":"bytes[]","internalType":"bytes[]"}],"outputs":[{"name":"","type":"bool","internalType":"bool"},{"name":"","type":"bytes","internalType":"bytes"}],"stateMutability":"pure"}],"bytecode":{"object":"0x6080604052348015600e575f5ffd5b506103638061001c5f395ff3fe608060405234801561000f575f5ffd5b506004361061004a575f3560e01c806344e6e4ce1461004e578063785ffb3714610078578063e52253811461008f578063f47828da146100b9575b5f5ffd5b61006161005c3660046101e5565b6100d9565b60405161006f929190610284565b60405180910390f35b61008161271081565b60405190815260200161006f565b60408051611388602080830191909152825180830390910181529082019182905261006f916102a6565b6100c1600181565b6040516001600160a01b03909116815260200161006f565b5f606082820361010a5750506040805180820190915260078152664e6f206461746160c81b60208201525f906101de565b5f84845f81811061011d5761011d6102bf565b905060200281019061012f91906102d3565b81019061013c9190610316565b90506127108110156101b75760018161271060405160200161019e92919060608082526019908201527f42756666657220756e646572666c6f772064657465637465640000000000000060808201526020810192909252604082015260a00190565b60405160208183030381529060405292509250506101de565b505060408051808201909152600a81526942616c616e6365204f4b60b01b60208201525f91505b9250929050565b5f5f602083850312156101f6575f5ffd5b823567ffffffffffffffff81111561020c575f5ffd5b8301601f8101851361021c575f5ffd5b803567ffffffffffffffff811115610232575f5ffd5b8560208260051b8401011115610246575f5ffd5b6020919091019590945092505050565b5f81518084528060208401602086015e5f602082860101526020601f19601f83011685010191505092915050565b8215158152604060208201525f61029e6040830184610256565b949350505050565b602081525f6102b86020830184610256565b9392505050565b634e487b7160e01b5f52603260045260245ffd5b5f5f8335601e198436030181126102e8575f5ffd5b83018035915067ffffffffffffffff821115610302575f5ffd5b6020019150368190038213156101de575f5ffd5b5f60208284031215610326575f5ffd5b503591905056fea2646970667358221220f6464bf5454e3f8c3299bbf367280977d99c512d5592f70f8521300fdf12f95c64736f6c634300081e0033","linkReferences":{}},"methodIdentifiers":{"BUFFER_ADDRESS()":"f47828da","THRESHOLD()":"785ffb37","collect()":"e5225381","shouldRespond(bytes[])":"44e6e4ce"},"id":30}